:020000040000FA
:0400000077EF00F0A6
:020004000000FA
:040008000EEF00F007
:0800180056EF00F0106ED8381D
:10002000116EE86A125CD8B448EF00F015B045EFE5
:1000300000F0C282C2B21AEF00F0C450166423EF7F
:1000400000F03AEF00F0C45014602CEF00F0146E92
:1000500012C013F03AEF00F0C450146235EF00F014
:10006000146E12C013F03AEF00F013C012F01580B6
:100070004FEF00F0122A12502F08D8A44FEF00F0D3
:1000800013C012F015804FEF00F015844FEF00F011
:10009000182E4FEF00F0280E186E19EF00F0F294B2
:1000A00019801138D86E103A10381000106ED838F8
:1000B000116E00001138D86E103A10381000730E0F
:1000C0001A6E070E1B6E1A2E63EF00F01B2E63EFE5
:1000D00000F01200E86A175CD8B412002A0E1C6EF9
:1000E0001C2E70EF00F0172E6EEF00F012002F0E96
:1000F000926E000E936E810ED56EE00EF26E040EBF
:10010000F16E0A0EC16E070EB46E060EC06E110EB1
:10011000C26E806A896A816A8A6A126A136A146A7C
:10012000156A196A176A0B0E166E280E186E19904A
:1001300015B4B6EF00F08A825FEC00F012C017F041
:100140006AEC00F012C017F06AEC00F012C017F071
:100150006AEC00F012C017F06AEC00F08A92B1EF7E
:1001600000F019A0B1EF00F097EF00F0B6EF00F04B
:020000040030CA
:0100010008F6
:00000001FF
